{
  "_format": "hh-sol-artifact-1",
  "contractName": "WrappedRebaseToken",
  "sourceName": "contracts/WrappedRebaseToken.sol",
  "abi": [
    {
      "inputs": [
        {
          "internalType": "address",
          "name": "_aalto",
          "type": "address"
        }
      ],
      "stateMutability": "nonpayable",
      "type": "constructor"
    },
    {
      "anonymous": false,
      "inputs": [
        {
          "indexed": true,
          "internalType": "address",
          "name": "owner",
          "type": "address"
        },
        {
          "indexed": true,
          "internalType": "address",
          "name": "spender",
          "type": "address"
        },
        {
          "indexed": false,
          "internalType": "uint256",
          "name": "value",
          "type": "uint256"
        }
      ],
      "name": "Approval",
      "type": "event"
    },
    {
      "anonymous": false,
      "inputs": [
        {
          "indexed": true,
          "internalType": "address",
          "name": "oldOwner",
          "type": "address"
        },
        {
          "indexed": true,
          "internalType": "address",
          "name": "newOwner",
          "type": "address"
        }
      ],
      "name": "OwnerSet",
      "type": "event"
    },
    {
      "anonymous": false,
      "inputs": [
        {
          "indexed": false,
          "internalType": "address",
          "name": "account",
          "type": "address"
        },
        {
          "indexed": false,
          "internalType": "bool",
          "name": "isMarketMaker",
          "type": "bool"
        }
      ],
      "name": "SetAutomatedMarketMaker",
      "type": "event"
    },
    {
      "anonymous": false,
      "inputs": [
        {
          "indexed": false,
          "internalType": "address",
          "name": "recipient",
          "type": "address"
        }
      ],
      "name": "SetBuyFeeRecipient",
      "type": "event"
    },
    {
      "anonymous": false,
      "inputs": [
        {
          "indexed": false,
          "internalType": "address",
          "name": "account",
          "type": "address"
        },
        {
          "indexed": false,
          "internalType": "bool",
          "name": "isFeeExempt",
          "type": "bool"
        }
      ],
      "name": "SetFeeExemption",
      "type": "event"
    },
    {
      "anonymous": false,
      "inputs": [
        {
          "indexed": false,
          "internalType": "uint256",
          "name": "buyFee",
          "type": "uint256"
        },
        {
          "indexed": false,
          "internalType": "uint256",
          "name": "sellFee",
          "type": "uint256"
        },
        {
          "indexed": false,
          "internalType": "uint256",
          "name": "transferFee",
          "type": "uint256"
        }
      ],
      "name": "SetFees",
      "type": "event"
    },
    {
      "anonymous": false,
      "inputs": [
        {
          "indexed": false,
          "internalType": "address",
          "name": "recipient",
          "type": "address"
        }
      ],
      "name": "SetSellFeeRecipient",
      "type": "event"
    },
    {
      "anonymous": false,
      "inputs": [
        {
          "indexed": false,
          "internalType": "address",
          "name": "recipient",
          "type": "address"
        }
      ],
      "name": "SetTransferFeeRecipient",
      "type": "event"
    },
    {
      "anonymous": false,
      "inputs": [
        {
          "indexed": true,
          "internalType": "address",
          "name": "from",
          "type": "address"
        },
        {
          "indexed": true,
          "internalType": "address",
          "name": "to",
          "type": "address"
        },
        {
          "indexed": false,
          "internalType": "uint256",
          "name": "value",
          "type": "uint256"
        }
      ],
      "name": "Transfer",
      "type": "event"
    },
    {
      "inputs": [],
      "name": "Aalto",
      "outputs": [
        {
          "internalType": "contract IERC20",
          "name": "",
          "type": "address"
        }
      ],
      "stateMutability": "view",
      "type": "function"
    },
    {
      "inputs": [],
      "name": "TAX_DENOM",
      "outputs": [
        {
          "internalType": "uint256",
          "name": "",
          "type": "uint256"
        }
      ],
      "stateMutability": "view",
      "type": "function"
    },
    {
      "inputs": [
        {
          "internalType": "address",
          "name": "holder",
          "type": "address"
        },
        {
          "internalType": "address",
          "name": "spender",
          "type": "address"
        }
      ],
      "name": "allowance",
      "outputs": [
        {
          "internalType": "uint256",
          "name": "",
          "type": "uint256"
        }
      ],
      "stateMutability": "view",
      "type": "function"
    },
    {
      "inputs": [
        {
          "internalType": "address",
          "name": "spender",
          "type": "address"
        },
        {
          "internalType": "uint256",
          "name": "amount",
          "type": "uint256"
        }
      ],
      "name": "approve",
      "outputs": [
        {
          "internalType": "bool",
          "name": "",
          "type": "bool"
        }
      ],
      "stateMutability": "nonpayable",
      "type": "function"
    },
    {
      "inputs": [
        {
          "internalType": "address",
          "name": "account",
          "type": "address"
        }
      ],
      "name": "balanceOf",
      "outputs": [
        {
          "internalType": "uint256",
          "name": "",
          "type": "uint256"
        }
      ],
      "stateMutability": "view",
      "type": "function"
    },
    {
      "inputs": [
        {
          "internalType": "uint256",
          "name": "amount",
          "type": "uint256"
        }
      ],
      "name": "burn",
      "outputs": [
        {
          "internalType": "bool",
          "name": "",
          "type": "bool"
        }
      ],
      "stateMutability": "nonpayable",
      "type": "function"
    },
    {
      "inputs": [
        {
          "internalType": "address",
          "name": "account",
          "type": "address"
        },
        {
          "internalType": "uint256",
          "name": "amount",
          "type": "uint256"
        }
      ],
      "name": "burnFrom",
      "outputs": [
        {
          "internalType": "bool",
          "name": "",
          "type": "bool"
        }
      ],
      "stateMutability": "nonpayable",
      "type": "function"
    },
    {
      "inputs": [],
      "name": "buyFee",
      "outputs": [
        {
          "internalType": "uint256",
          "name": "",
          "type": "uint256"
        }
      ],
      "stateMutability": "view",
      "type": "function"
    },
    {
      "inputs": [],
      "name": "buyFeeRecipient",
      "outputs": [
        {
          "internalType": "address",
          "name": "",
          "type": "address"
        }
      ],
      "stateMutability": "view",
      "type": "function"
    },
    {
      "inputs": [
        {
          "internalType": "address",
          "name": "newOwner",
          "type": "address"
        }
      ],
      "name": "changeOwner",
      "outputs": [],
      "stateMutability": "nonpayable",
      "type": "function"
    },
    {
      "inputs": [],
      "name": "decimals",
      "outputs": [
        {
          "internalType": "uint8",
          "name": "",
          "type": "uint8"
        }
      ],
      "stateMutability": "pure",
      "type": "function"
    },
    {
      "inputs": [],
      "name": "getOwner",
      "outputs": [
        {
          "internalType": "address",
          "name": "",
          "type": "address"
        }
      ],
      "stateMutability": "view",
      "type": "function"
    },
    {
      "inputs": [],
      "name": "getRedeemRate",
      "outputs": [
        {
          "internalType": "uint256",
          "name": "",
          "type": "uint256"
        }
      ],
      "stateMutability": "view",
      "type": "function"
    },
    {
      "inputs": [
        {
          "internalType": "address",
          "name": "sender",
          "type": "address"
        },
        {
          "internalType": "address",
          "name": "recipient",
          "type": "address"
        },
        {
          "internalType": "uint256",
          "name": "amount",
          "type": "uint256"
        }
      ],
      "name": "getTax",
      "outputs": [
        {
          "internalType": "uint256",
          "name": "",
          "type": "uint256"
        },
        {
          "internalType": "address",
          "name": "",
          "type": "address"
        }
      ],
      "stateMutability": "view",
      "type": "function"
    },
    {
      "inputs": [
        {
          "internalType": "uint256",
          "name": "amount",
          "type": "uint256"
        }
      ],
      "name": "getUnwrappedQuantity",
      "outputs": [
        {
          "internalType": "uint256",
          "name": "",
          "type": "uint256"
        }
      ],
      "stateMutability": "view",
      "type": "function"
    },
    {
      "inputs": [
        {
          "internalType": "uint256",
          "name": "amount",
          "type": "uint256"
        }
      ],
      "name": "getWrappedQuantity",
      "outputs": [
        {
          "internalType": "uint256",
          "name": "",
          "type": "uint256"
        }
      ],
      "stateMutability": "view",
      "type": "function"
    },
    {
      "inputs": [],
      "name": "name",
      "outputs": [
        {
          "internalType": "string",
          "name": "",
          "type": "string"
        }
      ],
      "stateMutability": "pure",
      "type": "function"
    },
    {
      "inputs": [
        {
          "internalType": "address",
          "name": "",
          "type": "address"
        }
      ],
      "name": "permissions",
      "outputs": [
        {
          "internalType": "bool",
          "name": "isFeeExempt",
          "type": "bool"
        },
        {
          "internalType": "bool",
          "name": "isLiquidityPool",
          "type": "bool"
        }
      ],
      "stateMutability": "view",
      "type": "function"
    },
    {
      "inputs": [
        {
          "internalType": "address",
          "name": "account",
          "type": "address"
        }
      ],
      "name": "registerAutomatedMarketMaker",
      "outputs": [],
      "stateMutability": "nonpayable",
      "type": "function"
    },
    {
      "inputs": [],
      "name": "sellFee",
      "outputs": [
        {
          "internalType": "uint256",
          "name": "",
          "type": "uint256"
        }
      ],
      "stateMutability": "view",
      "type": "function"
    },
    {
      "inputs": [],
      "name": "sellFeeRecipient",
      "outputs": [
        {
          "internalType": "address",
          "name": "",
          "type": "address"
        }
      ],
      "stateMutability": "view",
      "type": "function"
    },
    {
      "inputs": [
        {
          "internalType": "address",
          "name": "recipient",
          "type": "address"
        }
      ],
      "name": "setBuyFeeRecipient",
      "outputs": [],
      "stateMutability": "nonpayable",
      "type": "function"
    },
    {
      "inputs": [
        {
          "internalType": "address",
          "name": "account",
          "type": "address"
        },
        {
          "internalType": "bool",
          "name": "isExempt",
          "type": "bool"
        }
      ],
      "name": "setFeeExempt",
      "outputs": [],
      "stateMutability": "nonpayable",
      "type": "function"
    },
    {
      "inputs": [
        {
          "internalType": "uint256",
          "name": "_buyFee",
          "type": "uint256"
        },
        {
          "internalType": "uint256",
          "name": "_sellFee",
          "type": "uint256"
        },
        {
          "internalType": "uint256",
          "name": "_transferFee",
          "type": "uint256"
        }
      ],
      "name": "setFees",
      "outputs": [],
      "stateMutability": "nonpayable",
      "type": "function"
    },
    {
      "inputs": [
        {
          "internalType": "address",
          "name": "recipient",
          "type": "address"
        }
      ],
      "name": "setSellFeeRecipient",
      "outputs": [],
      "stateMutability": "nonpayable",
      "type": "function"
    },
    {
      "inputs": [
        {
          "internalType": "address",
          "name": "recipient",
          "type": "address"
        }
      ],
      "name": "setTransferFeeRecipient",
      "outputs": [],
      "stateMutability": "nonpayable",
      "type": "function"
    },
    {
      "inputs": [],
      "name": "symbol",
      "outputs": [
        {
          "internalType": "string",
          "name": "",
          "type": "string"
        }
      ],
      "stateMutability": "pure",
      "type": "function"
    },
    {
      "inputs": [],
      "name": "totalSupply",
      "outputs": [
        {
          "internalType": "uint256",
          "name": "",
          "type": "uint256"
        }
      ],
      "stateMutability": "view",
      "type": "function"
    },
    {
      "inputs": [
        {
          "internalType": "address",
          "name": "recipient",
          "type": "address"
        },
        {
          "internalType": "uint256",
          "name": "amount",
          "type": "uint256"
        }
      ],
      "name": "transfer",
      "outputs": [
        {
          "internalType": "bool",
          "name": "",
          "type": "bool"
        }
      ],
      "stateMutability": "nonpayable",
      "type": "function"
    },
    {
      "inputs": [],
      "name": "transferFee",
      "outputs": [
        {
          "internalType": "uint256",
          "name": "",
          "type": "uint256"
        }
      ],
      "stateMutability": "view",
      "type": "function"
    },
    {
      "inputs": [],
      "name": "transferFeeRecipient",
      "outputs": [
        {
          "internalType": "address",
          "name": "",
          "type": "address"
        }
      ],
      "stateMutability": "view",
      "type": "function"
    },
    {
      "inputs": [
        {
          "internalType": "address",
          "name": "sender",
          "type": "address"
        },
        {
          "internalType": "address",
          "name": "recipient",
          "type": "address"
        },
        {
          "internalType": "uint256",
          "name": "amount",
          "type": "uint256"
        }
      ],
      "name": "transferFrom",
      "outputs": [
        {
          "internalType": "bool",
          "name": "",
          "type": "bool"
        }
      ],
      "stateMutability": "nonpayable",
      "type": "function"
    },
    {
      "inputs": [
        {
          "internalType": "address",
          "name": "account",
          "type": "address"
        }
      ],
      "name": "unRegisterAutomatedMarketMaker",
      "outputs": [],
      "stateMutability": "nonpayable",
      "type": "function"
    },
    {
      "inputs": [
        {
          "internalType": "uint256",
          "name": "amount",
          "type": "uint256"
        }
      ],
      "name": "unwrap",
      "outputs": [],
      "stateMutability": "nonpayable",
      "type": "function"
    },
    {
      "inputs": [
        {
          "internalType": "address",
          "name": "token",
          "type": "address"
        }
      ],
      "name": "withdraw",
      "outputs": [],
      "stateMutability": "nonpayable",
      "type": "function"
    },
    {
      "inputs": [],
      "name": "withdrawBNB",
      "outputs": [],
      "stateMutability": "nonpayable",
      "type": "function"
    },
    {
      "inputs": [
        {
          "internalType": "uint256",
          "name": "amount",
          "type": "uint256"
        }
      ],
      "name": "wrap",
      "outputs": [],
      "stateMutability": "nonpayable",
      "type": "function"
    },
    {
      "stateMutability": "payable",
      "type": "receive"
    }
  ],
  "bytecode": "0x60a06040526105146004556106a460055561051460065534801561002257600080fd5b506040516200252838038062002528833981016040819052610043916100cc565b600080546001600160a01b0319163390811782556040519091907f342827c97908e5e2f71151c08502a66d44b6f758e3ac2f1de95f02eb95f0a735908290a36001600160a01b038116608052604051600080825233917fddf252ad1be2c89b69c2b068fc378daa952ba7f163c4a11628f55a4df523b3ef9060200160405180910390a3506100fc565b6000602082840312156100de57600080fd5b81516001600160a01b03811681146100f557600080fd5b9392505050565b6080516123d8620001506000396000818161068401528181610b4d0152818161118f01528181611245015281816115e3015281816116d9015281816117e601528181611881015261191701526123d86000f3fe60806040526004361061021e5760003560e01c806379cc679011610123578063acb2ad6f116100ab578063d7ad21ac1161006f578063d7ad21ac146106a6578063dd62ed3e146106e3578063de0e9a3e14610729578063ea598cb014610749578063f89532a21461076957600080fd5b8063acb2ad6f14610607578063bb54ff941461061d578063c09c5fa91461063d578063cec10c1114610652578063d15793d81461067257600080fd5b806395d89b41116100f257806395d89b41146105585780639a44b9e314610587578063a6f9dae1146105a7578063a9059cbb146105c7578063ac4dcb76146105e757600080fd5b806379cc6790146104da578063893d20e8146104fa5780638ebfc7961461051857806392a39d911461053857600080fd5b8063304561bb116101a65780634706240211610175578063470624021461042e57806351cff8d91461044457806365fe050e1461046457806367ffa8281461048457806370a08231146104a457600080fd5b8063304561bb1461039a578063313ce567146103d25780633eb193e2146103ee57806342966c681461040e57600080fd5b80631b53b563116101ed5780631b53b5631461030d5780631d111d131461032d57806323b872dd146103445780632ac7b824146103645780632b14ca561461038457600080fd5b806301e882081461022a57806306fdde031461027f578063095ea7b3146102be57806318160ddd146102ee57600080fd5b3661022557005b600080fd5b34801561023657600080fd5b506102636102453660046120bb565b60076020526000908152604090205460ff8082169161010090041682565b6040805192151583529015156020830152015b60405180910390f35b34801561028b57600080fd5b5060408051808201909152600d81526c577261707065642d41616c746f60981b60208201525b60405161027691906120d6565b3480156102ca57600080fd5b506102de6102d936600461212b565b61077f565b6040519015158152602001610276565b3480156102fa57600080fd5b506001545b604051908152602001610276565b34801561031957600080fd5b506102ff610328366004612155565b6107ec565b34801561033957600080fd5b50610342610811565b005b34801561035057600080fd5b506102de61035f36600461216e565b61089c565b34801561037057600080fd5b5061034261037f3660046120bb565b61092e565b34801561039057600080fd5b506102ff60055481565b3480156103a657600080fd5b50600a546103ba906001600160a01b031681565b6040516001600160a01b039091168152602001610276565b3480156103de57600080fd5b5060405160128152602001610276565b3480156103fa57600080fd5b506103426104093660046120bb565b610a37565b34801561041a57600080fd5b506102de610429366004612155565b610aef565b34801561043a57600080fd5b506102ff60045481565b34801561045057600080fd5b5061034261045f3660046120bb565b610afb565b34801561047057600080fd5b5061034261047f3660046120bb565b610cfb565b34801561049057600080fd5b5061034261049f3660046120bb565b610e06565b3480156104b057600080fd5b506102ff6104bf3660046120bb565b6001600160a01b031660009081526002602052604090205490565b3480156104e657600080fd5b506102de6104f536600461212b565b610ebe565b34801561050657600080fd5b506000546001600160a01b03166103ba565b34801561052457600080fd5b506103426105333660046121b8565b610f4e565b34801561054457600080fd5b506008546103ba906001600160a01b031681565b34801561056457600080fd5b506040805180820190915260068152657741616c746f60d01b60208201526102b1565b34801561059357600080fd5b506009546103ba906001600160a01b031681565b3480156105b357600080fd5b506103426105c23660046120bb565b611001565b3480156105d357600080fd5b506102de6105e236600461212b565b611086565b3480156105f357600080fd5b506103426106023660046120bb565b611093565b34801561061357600080fd5b506102ff60065481565b34801561062957600080fd5b506102ff610638366004612155565b61114b565b34801561064957600080fd5b506102ff611210565b34801561065e57600080fd5b5061034261066d3660046121ef565b6112bb565b34801561067e57600080fd5b506103ba7f000000000000000000000000000000000000000000000000000000000000000081565b3480156106b257600080fd5b506106c66106c136600461216e565b61140f565b604080519283526001600160a01b03909116602083015201610276565b3480156106ef57600080fd5b506102ff6106fe36600461221b565b6001600160a01b03918216600090815260036020908152604080832093909416825291909152205490565b34801561073557600080fd5b50610342610744366004612155565b611537565b34801561075557600080fd5b50610342610764366004612155565b6116a4565b34801561077557600080fd5b506102ff61271081565b3360008181526003602090815260408083206001600160a01b038716808552925280832085905551919290917f8c5be1e5ebec7d5bd14f71427d1e84f3dd0314c0f7b2291e5b200ac8c7c3b925906107da9086815260200190565b60405180910390a35060015b92915050565b60006107e66107f9611210565b61080b84670de0b6b3a76400006119f6565b90611a78565b6000546001600160a01b031633146108445760405162461bcd60e51b815260040161083b9061224e565b60405180910390fd5b604051600090339047908381818185875af1925050503d8060008114610886576040519150601f19603f3d011682016040523d82523d6000602084013e61088b565b606091505b505090508061089957600080fd5b50565b6040805180820182526016815275496e73756666696369656e7420416c6c6f77616e636560501b6020808301919091526001600160a01b038616600090815260038252838120338252909152918220546108f7918490611aba565b6001600160a01b0385166000908152600360209081526040808320338452909152902055610926848484611af4565b949350505050565b6000546001600160a01b031633146109585760405162461bcd60e51b815260040161083b9061224e565b6001600160a01b03811661097e5760405162461bcd60e51b815260040161083b9061227b565b6001600160a01b038116600090815260076020526040902054610100900460ff166109d85760405162461bcd60e51b815260206004820152600a6024820152694e6f7420416e20414d4d60b01b604482015260640161083b565b6001600160a01b0381166000818152600760209081526040808320805461ff00191690558051938452908301919091527fc61655276240ba149963bf00ed68118036aceb86661c8530fc627aeb83d9d1f291015b60405180910390a150565b6000546001600160a01b03163314610a615760405162461bcd60e51b815260040161083b9061224e565b6001600160a01b038116610a875760405162461bcd60e51b815260040161083b9061227b565b600980546001600160a01b0319166001600160a01b038316908117909155600081815260076020908152604091829020805460ff1916600117905590519182527fc1705819a90a4e9c9fba1872573191b370b8778cd644e0050b90c99b3c0762a99101610a2c565b60006107e63383611d96565b6000546001600160a01b03163314610b255760405162461bcd60e51b815260040161083b9061224e565b6001600160a01b038116610b4b5760405162461bcd60e51b815260040161083b9061227b565b7f00000000000000000000000000000000000000000000000000000000000000006001600160a01b0316816001600160a01b031603610bc45760405162461bcd60e51b815260206004820152601560248201527443616e6e6f742057697468647261772041616c746f60581b604482015260640161083b565b6040516370a0823160e01b81523060048201526000906001600160a01b0383169063a9059cbb90339083906370a0823190602401602060405180830381865afa158015610c15573d6000803e3d6000fd5b505050506040513d601f19601f82011682018060405250810190610c3991906122a1565b6040516001600160e01b031960e085901b1681526001600160a01b03909216600483015260248201526044016020604051808303816000875af1158015610c84573d6000803e3d6000fd5b505050506040513d601f19601f82011682018060405250810190610ca891906122ba565b905080610cf75760405162461bcd60e51b815260206004820152601960248201527f4661696c757265204f6e20546f6b656e20576974686472617700000000000000604482015260640161083b565b5050565b6000546001600160a01b03163314610d255760405162461bcd60e51b815260040161083b9061224e565b6001600160a01b038116610d4b5760405162461bcd60e51b815260040161083b9061227b565b6001600160a01b038116600090815260076020526040902054610100900460ff1615610daa5760405162461bcd60e51b815260206004820152600e60248201526d416c726561647920416e20414d4d60901b604482015260640161083b565b6001600160a01b038116600081815260076020908152604091829020805461ff00191661010017905581519283526001908301527fc61655276240ba149963bf00ed68118036aceb86661c8530fc627aeb83d9d1f29101610a2c565b6000546001600160a01b03163314610e305760405162461bcd60e51b815260040161083b9061224e565b6001600160a01b038116610e565760405162461bcd60e51b815260040161083b9061227b565b600880546001600160a01b0319166001600160a01b038316908117909155600081815260076020908152604091829020805460ff1916600117905590519182527fffba9995ed8a822e426a175c6a29db4e239f0788c470ba2588c6bb3cc486a4499101610a2c565b6040805180820182526016815275496e73756666696369656e7420416c6c6f77616e636560501b6020808301919091526001600160a01b03851660009081526003825283812033825290915291822054610f19918490611aba565b6001600160a01b0384166000908152600360209081526040808320338452909152902055610f478383611d96565b9392505050565b6000546001600160a01b03163314610f785760405162461bcd60e51b815260040161083b9061224e565b6001600160a01b038216610f9e5760405162461bcd60e51b815260040161083b9061227b565b6001600160a01b038216600081815260076020908152604091829020805460ff19168515159081179091558251938452908301527f2293b760d6615c0f087e78599ce64d67197a7dba78cdd9e241f3cd23b46101f3910160405180910390a15050565b6000546001600160a01b0316331461102b5760405162461bcd60e51b815260040161083b9061224e565b600080546040516001600160a01b03808516939216917f342827c97908e5e2f71151c08502a66d44b6f758e3ac2f1de95f02eb95f0a73591a3600080546001600160a01b0319166001600160a01b0392909216919091179055565b6000610f47338484611af4565b6000546001600160a01b031633146110bd5760405162461bcd60e51b815260040161083b9061224e565b6001600160a01b0381166110e35760405162461bcd60e51b815260040161083b9061227b565b600a80546001600160a01b0319166001600160a01b038316908117909155600081815260076020908152604091829020805460ff1916600117905590519182527f78dd3f4c755a9774505b9155386a8765af9250233430ebf8ad314a8a76e43c6b9101610a2c565b60008061116c670de0b6b3a764000061080b611165611210565b86906119f6565b6040516370a0823160e01b81523060048201529091506000906001600160a01b037f000000000000000000000000000000000000000000000000000000000000000016906370a0823190602401602060405180830381865afa1580156111d6573d6000803e3d6000fd5b505050506040513d601f19601f820116820180604052508101906111fa91906122a1565b90508082106112095780610926565b5092915050565b6001546040516370a0823160e01b81523060048201526000916112b69161080b90670de0b6b3a7640000906001600160a01b037f000000000000000000000000000000000000000000000000000000000000000016906370a0823190602401602060405180830381865afa15801561128c573d6000803e3d6000fd5b505050506040513d601f19601f820116820180604052508101906112b091906122a1565b906119f6565b905090565b6000546001600160a01b031633146112e55760405162461bcd60e51b815260040161083b9061224e565b6109c483111561132a5760405162461bcd60e51b815260206004820152601060248201526f084eaf2408ccaca40a8dede4090d2ced60831b604482015260640161083b565b6109c48211156113705760405162461bcd60e51b81526020600482015260116024820152700a6cad8d8408ccaca40a8dede4090d2ced607b1b604482015260640161083b565b6109c48111156113ba5760405162461bcd60e51b81526020600482015260156024820152740a8e4c2dce6cccae4408ccaca40a8dede4090d2ced605b1b604482015260640161083b565b60048390556005829055600681905560408051848152602081018490529081018290527f37322890d66d781059d797be5e2f27dc160a34d8bc0a8e09116cb9a773ce88ef9060600160405180910390a1505050565b6001600160a01b038316600090815260076020526040812054819060ff168061145057506001600160a01b03841660009081526007602052604090205460ff165b156114605750600090508061152f565b6001600160a01b038516600090815260076020526040902054610100900460ff16611502576001600160a01b038416600090815260076020526040902054610100900460ff166114d6576114c561271061080b600654866119f690919063ffffffff16565b600a546001600160a01b031661152a565b6114f161271061080b600554866119f690919063ffffffff16565b6008546001600160a01b031661152a565b61151d61271061080b600454866119f690919063ffffffff16565b6009546001600160a01b03165b915091505b935093915050565b600081116115575760405162461bcd60e51b815260040161083b906122d7565b336000908152600260205260409020548111156115af5760405162461bcd60e51b8152602060048201526016602482015275416d6f756e7420457863656564732042616c616e636560501b604482015260640161083b565b60006115ba8261114b565b90506115c63383611d96565b5060405163a9059cbb60e01b8152336004820152602481018290527f00000000000000000000000000000000000000000000000000000000000000006001600160a01b03169063a9059cbb906044016020604051808303816000875af1158015611634573d6000803e3d6000fd5b505050506040513d601f19601f8201168201806040525081019061165891906122ba565b610cf75760405162461bcd60e51b815260206004820152601760248201527f4572726f72204f6e2041616c746f205472616e73666572000000000000000000604482015260640161083b565b600081116116c45760405162461bcd60e51b815260040161083b906122d7565b6040516370a0823160e01b81523360048201527f00000000000000000000000000000000000000000000000000000000000000006001600160a01b0316906370a0823190602401602060405180830381865afa158015611728573d6000803e3d6000fd5b505050506040513d601f19601f8201168201806040525081019061174c91906122a1565b8111156117a75760405162461bcd60e51b8152602060048201526024808201527f416d6f756e7420457863656564732053656e646572732041616c746f2042616c604482015263616e636560e01b606482015260840161083b565b60006001546000146117c1576117bc826107ec565b6117c3565b815b6040516370a0823160e01b81523060048201529091506000906001600160a01b037f000000000000000000000000000000000000000000000000000000000000000016906370a0823190602401602060405180830381865afa15801561182d573d6000803e3d6000fd5b505050506040513d601f19601f8201168201806040525081019061185191906122a1565b6040516323b872dd60e01b8152336004820152306024820152604481018590529091506000906001600160a01b037f000000000000000000000000000000000000000000000000000000000000000016906323b872dd906064016020604051808303816000875af11580156118ca573d6000803e3d6000fd5b505050506040513d601f19601f820116820180604052508101906118ee91906122ba565b6040516370a0823160e01b81523060048201529091506000906119889084906001600160a01b037f000000000000000000000000000000000000000000000000000000000000000016906370a0823190602401602060405180830381865afa15801561195e573d6000803e3d6000fd5b505050506040513d601f19601f8201168201806040525081019061198291906122a1565b90611f10565b90508180156119975750600081115b80156119a35750848111155b6119e45760405162461bcd60e51b81526020600482015260126024820152714572726f72205472616e7366657246726f6d60701b604482015260640161083b565b6119ee3385611f52565b505050505050565b600082600003611a08575060006107e6565b6000611a148385612312565b905082611a218583612331565b14610f475760405162461bcd60e51b815260206004820152602160248201527f536166654d6174683a206d756c7469706c69636174696f6e206f766572666c6f6044820152607760f81b606482015260840161083b565b6000610f4783836040518060400160405280601a81526020017f536166654d6174683a206469766973696f6e206279207a65726f000000000000815250612012565b60008184841115611ade5760405162461bcd60e51b815260040161083b91906120d6565b506000611aeb8486612353565b95945050505050565b60006001600160a01b038316611b3d5760405162461bcd60e51b815260206004820152600e60248201526d16995c9bc8149958da5c1a595b9d60921b604482015260640161083b565b6001600160a01b038416611b815760405162461bcd60e51b815260206004820152600b60248201526a2d32b9379029b2b73232b960a91b604482015260640161083b565b60008211611ba15760405162461bcd60e51b815260040161083b906122d7565b6001600160a01b038416600090815260026020526040902054821115611c005760405162461bcd60e51b8152602060048201526014602482015273496e73756666696369656e742042616c616e636560601b604482015260640161083b565b604080518082018252601181527042616c616e636520556e646572666c6f7760781b6020808301919091526001600160a01b038716600090815260029091529190912054611c4f918490611aba565b6001600160a01b03851660009081526002602052604081209190915580611c7786868661140f565b90925090508115611d0d5760006001600160a01b03821615611c995781611c9b565b305b6001600160a01b038116600090815260026020526040902054909150611cc19084612040565b6001600160a01b03808316600081815260026020526040908190209390935591519089169060008051602061238383398151915290611d039087815260200190565b60405180910390a3505b6000611d198584611f10565b6001600160a01b038716600090815260026020526040902054909150611d3f9082612040565b6001600160a01b03808816600081815260026020526040908190209390935591519089169060008051602061238383398151915290611d819085815260200190565b60405180910390a35060019695505050505050565b60006001600160a01b038316611dbe5760405162461bcd60e51b815260040161083b9061227b565b60008211611dde5760405162461bcd60e51b815260040161083b906122d7565b6001600160a01b038316600090815260026020526040902054821115611e3d5760405162461bcd60e51b8152602060048201526014602482015273496e73756666696369656e742042616c616e636560601b604482015260640161083b565b604080518082018252601181527042616c616e636520556e646572666c6f7760781b6020808301919091526001600160a01b038616600090815260029091529190912054611e8c918490611aba565b6001600160a01b038416600090815260026020908152604091829020929092558051808201909152601081526f537570706c7920556e646572666c6f7760801b91810191909152600154611ee1918490611aba565b6001556040518281526000906001600160a01b03851690600080516020612383833981519152906020016107da565b6000610f4783836040518060400160405280601e81526020017f536166654d6174683a207375627472616374696f6e206f766572666c6f770000815250611aba565b60006001600160a01b038316611f7a5760405162461bcd60e51b815260040161083b9061227b565b60008211611f9a5760405162461bcd60e51b815260040161083b906122d7565b6001600160a01b038316600090815260026020526040902054611fbd9083612040565b6001600160a01b038416600090815260026020526040902055600154611fe39083612040565b6001556040518281526001600160a01b03841690600090600080516020612383833981519152906020016107da565b600081836120335760405162461bcd60e51b815260040161083b91906120d6565b506000611aeb8486612331565b60008061204d838561236a565b905083811015610f475760405162461bcd60e51b815260206004820152601b60248201527f536166654d6174683a206164646974696f6e206f766572666c6f770000000000604482015260640161083b565b80356001600160a01b03811681146120b657600080fd5b919050565b6000602082840312156120cd57600080fd5b610f478261209f565b600060208083528351808285015260005b81811015612103578581018301518582016040015282016120e7565b81811115612115576000604083870101525b50601f01601f1916929092016040019392505050565b6000806040838503121561213e57600080fd5b6121478361209f565b946020939093013593505050565b60006020828403121561216757600080fd5b5035919050565b60008060006060848603121561218357600080fd5b61218c8461209f565b925061219a6020850161209f565b9150604084013590509250925092565b801515811461089957600080fd5b600080604083850312156121cb57600080fd5b6121d48361209f565b915060208301356121e4816121aa565b809150509250929050565b60008060006060848603121561220457600080fd5b505081359360208301359350604090920135919050565b6000806040838503121561222e57600080fd5b6122378361209f565b91506122456020840161209f565b90509250929050565b60208082526013908201527221b0b63632b91034b9903737ba1037bbb732b960691b604082015260600190565b6020808252600c908201526b5a65726f204164647265737360a01b604082015260600190565b6000602082840312156122b357600080fd5b5051919050565b6000602082840312156122cc57600080fd5b8151610f47816121aa565b6020808252600b908201526a16995c9bc8105b5bdd5b9d60aa1b604082015260600190565b634e487b7160e01b600052601160045260246000fd5b600081600019048311821515161561232c5761232c6122fc565b500290565b60008261234e57634e487b7160e01b600052601260045260246000fd5b500490565b600082821015612365576123656122fc565b500390565b6000821982111561237d5761237d6122fc565b50019056feddf252ad1be2c89b69c2b068fc378daa952ba7f163c4a11628f55a4df523b3efa26469706673582212207fa1804d4e41b1528b67b0baa0f91459cee98a1484b2bb6461c06c12a621f2bf64736f6c634300080e0033",
  "linkReferences": {},
  "deployedLinkReferences": {}
}